{
  "_format": "hh-sol-artifact-1",
  "contractName": "TssGroupManager",
  "sourceName": "contracts/L1/tss/TssGroupManager.sol",
  "abi": [
    {
      "anonymous": false,
      "inputs": [
        {
          "indexed": false,
          "internalType": "uint8",
          "name": "version",
          "type": "uint8"
        }
      ],
      "name": "Initialized",
      "type": "event"
    },
    {
      "anonymous": false,
      "inputs": [
        {
          "indexed": true,
          "internalType": "address",
          "name": "previousOwner",
          "type": "address"
        },
        {
          "indexed": true,
          "internalType": "address",
          "name": "newOwner",
          "type": "address"
        }
      ],
      "name": "OwnershipTransferred",
      "type": "event"
    },
    {
      "anonymous": false,
      "inputs": [
        {
          "indexed": false,
          "internalType": "uint256",
          "name": "_roundId",
          "type": "uint256"
        },
        {
          "indexed": false,
          "internalType": "bytes",
          "name": "_groupKey",
          "type": "bytes"
        },
        {
          "indexed": false,
          "internalType": "bytes[]",
          "name": "activeTssMembers",
          "type": "bytes[]"
        }
      ],
      "name": "tssActiveMemberAppended",
      "type": "event"
    },
    {
      "anonymous": false,
      "inputs": [
        {
          "indexed": false,
          "internalType": "uint256",
          "name": "_roundId",
          "type": "uint256"
        },
        {
          "indexed": false,
          "internalType": "uint256",
          "name": "_threshold",
          "type": "uint256"
        },
        {
          "indexed": false,
          "internalType": "bytes[]",
          "name": "_inActiveTssMembers",
          "type": "bytes[]"
        }
      ],
      "name": "tssGroupMemberAppend",
      "type": "event"
    },
    {
      "inputs": [
        {
          "internalType": "bytes32",
          "name": "_messageHash",
          "type": "bytes32"
        }
      ],
      "name": "getEthSignedMessageHash",
      "outputs": [
        {
          "internalType": "bytes32",
          "name": "",
          "type": "bytes32"
        }
      ],
      "stateMutability": "pure",
      "type": "function"
    },
    {
      "inputs": [],
      "name": "getTssGroupInfo",
      "outputs": [
        {
          "internalType": "uint256",
          "name": "",
          "type": "uint256"
        },
        {
          "internalType": "uint256",
          "name": "",
          "type": "uint256"
        },
        {
          "internalType": "bytes",
          "name": "",
          "type": "bytes"
        },
        {
          "internalType": "bytes[]",
          "name": "",
          "type": "bytes[]"
        }
      ],
      "stateMutability": "view",
      "type": "function"
    },
    {
      "inputs": [],
      "name": "getTssGroupMembers",
      "outputs": [
        {
          "internalType": "bytes[]",
          "name": "",
          "type": "bytes[]"
        }
      ],
      "stateMutability": "view",
      "type": "function"
    },
    {
      "inputs": [],
      "name": "getTssGroupUnJailMembers",
      "outputs": [
        {
          "internalType": "address[]",
          "name": "",
          "type": "address[]"
        }
      ],
      "stateMutability": "nonpayable",
      "type": "function"
    },
    {
      "inputs": [],
      "name": "getTssInactiveGroupInfo",
      "outputs": [
        {
          "internalType": "uint256",
          "name": "",
          "type": "uint256"
        },
        {
          "internalType": "uint256",
          "name": "",
          "type": "uint256"
        },
        {
          "internalType": "bytes[]",
          "name": "",
          "type": "bytes[]"
        }
      ],
      "stateMutability": "view",
      "type": "function"
    },
    {
      "inputs": [
        {
          "internalType": "bytes",
          "name": "_publicKey",
          "type": "bytes"
        }
      ],
      "name": "getTssMember",
      "outputs": [
        {
          "components": [
            {
              "internalType": "bytes",
              "name": "publicKey",
              "type": "bytes"
            },
            {
              "internalType": "address",
              "name": "nodeAddress",
              "type": "address"
            },
            {
              "internalType": "enum ITssGroupManager.MemberStatus",
              "name": "status",
              "type": "uint8"
            }
          ],
          "internalType": "struct ITssGroupManager.TssMember",
          "name": "",
          "type": "tuple"
        }
      ],
      "stateMutability": "view",
      "type": "function"
    },
    {
      "inputs": [],
      "name": "inActiveIsEmpty",
      "outputs": [
        {
          "internalType": "bool",
          "name": "",
          "type": "bool"
        }
      ],
      "stateMutability": "view",
      "type": "function"
    },
    {
      "inputs": [],
      "name": "initialize",
      "outputs": [],
      "stateMutability": "nonpayable",
      "type": "function"
    },
    {
      "inputs": [
        {
          "internalType": "bytes",
          "name": "byteListA",
          "type": "bytes"
        },
        {
          "internalType": "bytes",
          "name": "byteListB",
          "type": "bytes"
        }
      ],
      "name": "isEqual",
      "outputs": [
        {
          "internalType": "bool",
          "name": "",
          "type": "bool"
        }
      ],
      "stateMutability": "pure",
      "type": "function"
    },
    {
      "inputs": [
        {
          "internalType": "bytes",
          "name": "",
          "type": "bytes"
        }
      ],
      "name": "isInActiveMember",
      "outputs": [
        {
          "internalType": "bool",
          "name": "",
          "type": "bool"
        }
      ],
      "stateMutability": "view",
      "type": "function"
    },
    {
      "inputs": [
        {
          "internalType": "bytes",
          "name": "_publicKey",
          "type": "bytes"
        }
      ],
      "name": "memberExistActive",
      "outputs": [
        {
          "internalType": "bool",
          "name": "",
          "type": "bool"
        }
      ],
      "stateMutability": "view",
      "type": "function"
    },
    {
      "inputs": [
        {
          "internalType": "bytes",
          "name": "_publicKey",
          "type": "bytes"
        }
      ],
      "name": "memberExistInActive",
      "outputs": [
        {
          "internalType": "bool",
          "name": "",
          "type": "bool"
        }
      ],
      "stateMutability": "view",
      "type": "function"
    },
    {
      "inputs": [
        {
          "internalType": "bytes",
          "name": "_publicKey",
          "type": "bytes"
        }
      ],
      "name": "memberJail",
      "outputs": [],
      "stateMutability": "nonpayable",
      "type": "function"
    },
    {
      "inputs": [
        {
          "internalType": "bytes",
          "name": "_publicKey",
          "type": "bytes"
        }
      ],
      "name": "memberUnJail",
      "outputs": [],
      "stateMutability": "nonpayable",
      "type": "function"
    },
    {
      "inputs": [],
      "name": "owner",
      "outputs": [
        {
          "internalType": "address",
          "name": "",
          "type": "address"
        }
      ],
      "stateMutability": "view",
      "type": "function"
    },
    {
      "inputs": [
        {
          "internalType": "bytes",
          "name": "publicKey",
          "type": "bytes"
        }
      ],
      "name": "publicKeyToAddress",
      "outputs": [
        {
          "internalType": "address",
          "name": "",
          "type": "address"
        }
      ],
      "stateMutability": "pure",
      "type": "function"
    },
    {
      "inputs": [
        {
          "internalType": "bytes32",
          "name": "_ethSignedMessageHash",
          "type": "bytes32"
        },
        {
          "internalType": "bytes",
          "name": "_sig",
          "type": "bytes"
        }
      ],
      "name": "recover",
      "outputs": [
        {
          "internalType": "address",
          "name": "",
          "type": "address"
        }
      ],
      "stateMutability": "pure",
      "type": "function"
    },
    {
      "inputs": [
        {
          "internalType": "bytes",
          "name": "_publicKey",
          "type": "bytes"
        }
      ],
      "name": "removeMember",
      "outputs": [],
      "stateMutability": "nonpayable",
      "type": "function"
    },
    {
      "inputs": [],
      "name": "renounceOwnership",
      "outputs": [],
      "stateMutability": "nonpayable",
      "type": "function"
    },
    {
      "inputs": [
        {
          "internalType": "bytes",
          "name": "_publicKey",
          "type": "bytes"
        },
        {
          "internalType": "bytes",
          "name": "_groupPublicKey",
          "type": "bytes"
        }
      ],
      "name": "setGroupPublicKey",
      "outputs": [],
      "stateMutability": "nonpayable",
      "type": "function"
    },
    {
      "inputs": [
        {
          "internalType": "address",
          "name": "_address",
          "type": "address"
        }
      ],
      "name": "setStakingSlash",
      "outputs": [],
      "stateMutability": "nonpayable",
      "type": "function"
    },
    {
      "inputs": [
        {
          "internalType": "uint256",
          "name": "_threshold",
          "type": "uint256"
        },
        {
          "internalType": "bytes[]",
          "name": "_batchPublicKey",
          "type": "bytes[]"
        }
      ],
      "name": "setTssGroupMember",
      "outputs": [],
      "stateMutability": "nonpayable",
      "type": "function"
    },
    {
      "inputs": [],
      "name": "stakingSlash",
      "outputs": [
        {
          "internalType": "address",
          "name": "",
          "type": "address"
        }
      ],
      "stateMutability": "view",
      "type": "function"
    },
    {
      "inputs": [
        {
          "internalType": "address",
          "name": "newOwner",
          "type": "address"
        }
      ],
      "name": "transferOwnership",
      "outputs": [],
      "stateMutability": "nonpayable",
      "type": "function"
    },
    {
      "inputs": [
        {
          "internalType": "bytes",
          "name": "",
          "type": "bytes"
        }
      ],
      "name": "tssActiveMemberInfo",
      "outputs": [
        {
          "internalType": "bytes",
          "name": "publicKey",
          "type": "bytes"
        },
        {
          "internalType": "address",
          "name": "nodeAddress",
          "type": "address"
        },
        {
          "internalType": "enum ITssGroupManager.MemberStatus",
          "name": "status",
          "type": "uint8"
        }
      ],
      "stateMutability": "view",
      "type": "function"
    },
    {
      "inputs": [
        {
          "internalType": "bytes32",
          "name": "_message",
          "type": "bytes32"
        },
        {
          "internalType": "bytes",
          "name": "_sig",
          "type": "bytes"
        }
      ],
      "name": "verifySign",
      "outputs": [
        {
          "internalType": "bool",
          "name": "",
          "type": "bool"
        }
      ],
      "stateMutability": "view",
      "type": "function"
    }
  ],
  "bytecode": "0x608060405234801561001057600080fd5b50612f65806100206000396000f3fe608060405234801561001057600080fd5b50600436106101ae5760003560e01c80637a952c11116100ee578063bcbc5fc611610097578063f2fde38b11610071578063f2fde38b146103c8578063fa540801146103db578063fcca55921461044a578063fd3eb81f1461046257600080fd5b8063bcbc5fc614610367578063cf4c8a7b1461037a578063e46a63681461039a57600080fd5b80638da5cb5b116100c85780638da5cb5b1461031257806395f645bc14610330578063b3bd9ac41461034557600080fd5b80637a952c11146102ee5780638129fc1c146103015780638a51d8b41461030957600080fd5b8063404a69861161015b5780634679b366116101355780634679b366146102a05780634866e2e0146102b357806354bbb914146102c6578063715018a6146102e657600080fd5b8063404a698614610263578063429ec49c1461027a57806343ae656c1461028d57600080fd5b80632cd00d531161018c5780632cd00d53146102185780633231a7f01461022d578063343598081461025057600080fd5b806319045a25146101b35780631a47931b146101f0578063254ff98114610205575b600080fd5b6101c66101c13660046127b5565b610475565b60405173ffffffffffffffffffffffffffffffffffffffff90911681526020015b60405180910390f35b6102036101fe3660046127fc565b6104f5565b005b6102036102133660046128cb565b610880565b610220610959565b6040516101e79190612908565b61024061023b3660046127b5565b610af4565b60405190151581526020016101e7565b61024061025e366004612962565b610b93565b61026b610c55565b6040516101e793929190612a8b565b6102036102883660046128cb565b610d40565b6101c661029b3660046128cb565b610ddf565b6102036102ae366004612962565b610e3e565b6102406102c13660046128cb565b611198565b6102d96102d43660046128cb565b6111c3565b6040516101e79190612b1d565b61020361130b565b6102036102fc3660046128cb565b61131f565b6102036114e1565b609f5415610240565b60335473ffffffffffffffffffffffffffffffffffffffff166101c6565b61033861164b565b6040516101e79190612b75565b6103586103533660046128cb565b611724565b6040516101e793929190612b8f565b6102406103753660046128cb565b611807565b609d546101c69073ffffffffffffffffffffffffffffffffffffffff1681565b6102406103a83660046128cb565b805160208183018101805160a48252928201919093012091525460ff1681565b6102036103d6366004612bcd565b61184c565b61043c6103e9366004612c03565b6040517f19457468657265756d205369676e6564204d6573736167653a0a3332000000006020820152603c8101829052600090605c01604051602081830303815290604052805190602001209050919050565b6040519081526020016101e7565b6104526118e6565b6040516101e79493929190612c1c565b610203610470366004612bcd565b611bf2565b60008060008061048485611c41565b6040805160008152602081018083528b905260ff8316918101919091526060810184905260808101839052929550909350915060019060a0016020604051602081039080840390855afa1580156104df573d6000803e3d6000fd5b5050506020604051035193505050505b92915050565b6104fd611cb5565b60008151116105535760405162461bcd60e51b815260206004820152601960248201527f6261746368207075626c6963206b657920697320656d7074790000000000000060448201526064015b60405180910390fd5b805182106105c95760405162461bcd60e51b815260206004820152602360248201527f7468726573686f6c64206d757374206c657373207468616e20747373206d656d60448201527f6265720000000000000000000000000000000000000000000000000000000000606482015260840161054a565b609f54156107245760005b609f548110156107175760a260a1609f83815481106105f5576105f5612c58565b9060005260206000200160405161060c9190612cdb565b90815260405190819003602001812061062491612cdb565b90815260200160405180910390206000905560a1609f828154811061064b5761064b612c58565b906000526020600020016040516106629190612cdb565b9081526020016040518091039020600061067c9190612502565b60a3609f828154811061069157610691612c58565b906000526020600020016040516106a89190612cdb565b908152604051908190036020019020805460ff19169055609f805460a49190839081106106d7576106d7612c58565b906000526020600020016040516106ee9190612cdb565b908152604051908190036020019020805460ff191690558061070f81612d7c565b9150506105d4565b50610724609f600061253c565b60005b815181101561082457609f82828151811061074457610744612c58565b60209081029190910181015182546001810184556000938452928290208151610776949190910192919091019061255a565b50600160a483838151811061078d5761078d612c58565b60200260200101516040516107a29190612db5565b908152602001604051809103902060006101000a81548160ff021916908315150217905550600060a38383815181106107dd576107dd612c58565b60200260200101516040516107f29190612db5565b908152604051908190036020019020805491151560ff199092169190911790558061081c81612d7c565b915050610727565b506099829055609a54610838906001612dd1565b609a8190556000609b556040517ffa26843b7ced045dd12994ee0e73c6f0904c3a4608bce58ae304d606035b079e916108749185908590612a8b565b60405180910390a15050565b609d5473ffffffffffffffffffffffffffffffffffffffff16331461090d5760405162461bcd60e51b815260206004820152602560248201527f636f6e74726163742063616c6c206973206e6f74207374616b696e6720736c6160448201527f7368696e67000000000000000000000000000000000000000000000000000000606482015260840161054a565b600160a08260405161091f9190612db5565b908152602001604051809103902060010160146101000a81548160ff0219169083600181111561095157610951612ab3565b021790555050565b6060610967609c60006125de565b60005b609e54811015610a8657600060a0609e838154811061098b5761098b612c58565b906000526020600020016040516109a29190612cdb565b908152602001604051809103902060010160149054906101000a900460ff1660018111156109d2576109d2612ab3565b1415610a7457609c60a0609e83815481106109ef576109ef612c58565b90600052602060002001604051610a069190612cdb565b9081526040519081900360209081019091206001908101548354918201845560009384529190922090910180547fffffffffffffffffffffffff00000000000000000000000000000000000000001673ffffffffffffffffffffffffffffffffffffffff9092169190911790555b80610a7e81612d7c565b91505061096a565b50609c805480602002602001604051908101604052809291908181526020018280548015610aea57602002820191906000526020600020905b815473ffffffffffffffffffffffffffffffffffffffff168152600190910190602001808311610abf575b5050505050905090565b600080610b4e846040517f19457468657265756d205369676e6564204d6573736167653a0a3332000000006020820152603c8101829052600090605c01604051602081830303815290604052805190602001209050919050565b60985490915073ffffffffffffffffffffffffffffffffffffffff16610b748285610475565b73ffffffffffffffffffffffffffffffffffffffff1614949350505050565b60008151835114610ba6575060006104ef565b60005b8351811015610c4b57828181518110610bc457610bc4612c58565b602001015160f81c60f81b7effffffffffffffffffffffffffffffffffffffffffffffffffffffffffffff1916848281518110610c0357610c03612c58565b01602001517fff000000000000000000000000000000000000000000000000000000000000001614610c395760009150506104ef565b80610c4381612d7c565b915050610ba9565b5060019392505050565b6000806060609a54609954609f80805480602002602001604051908101604052809291908181526020016000905b82821015610d2f578382906000526020600020018054610ca290612c87565b80601f0160208091040260200160405190810160405280929190818152602001828054610cce90612c87565b8015610d1b5780601f10610cf057610100808354040283529160200191610d1b565b820191906000526020600020905b815481529060010190602001808311610cfe57829003601f168201915b505050505081526020019060010190610c83565b505050509050925092509250909192565b609d5473ffffffffffffffffffffffffffffffffffffffff163314610dcd5760405162461bcd60e51b815260206004820152602560248201527f636f6e74726163742063616c6c206973206e6f74207374616b696e6720736c6160448201527f7368696e67000000000000000000000000000000000000000000000000000000606482015260840161054a565b600060a08260405161091f9190612db5565b60008151604014610e325760405162461bcd60e51b815260206004820152601f60248201527f7075626c6963206b6579206c656e677468206d75737420363420627974657300604482015260640161054a565b50805160209091012090565b60a482604051610e4e9190612db5565b9081526040519081900360200190205460ff161515600114610ed85760405162461bcd60e51b815260206004820152602860248201527f796f7572207075626c6963206b6579206973206e6f7420696e20496e4163746960448201527f76654d656d626572000000000000000000000000000000000000000000000000606482015260840161054a565b610ee182610ddf565b73ffffffffffffffffffffffffffffffffffffffff163373ffffffffffffffffffffffffffffffffffffffff1614610f5b5760405162461bcd60e51b815260206004820152601460248201527f7075626c6963206b6579206e6f74206d61746368000000000000000000000000604482015260640161054a565b60a382604051610f6b9190612db5565b9081526040519081900360200190205460ff16610fc657600160a383604051610f949190612db5565b908152604051908190036020019020805491151560ff19909216919091179055609b54610fc2906001612dd1565b609b555b61107660a183604051610fd99190612db5565b90815260200160405180910390208054610ff290612c87565b80601f016020809104026020016040519081016040528092919081815260200182805461101e90612c87565b801561106b5780601f106110405761010080835404028352916020019161106b565b820191906000526020600020905b81548152906001019060200180831161104e57829003601f168201915b505050505082610b93565b61116257600160a28260405161108c9190612db5565b908152602001604051809103902060008282546110a99190612dd1565b909155505060405160a1906110bf908490612db5565b908152602001604051809103902080546110d890612c87565b15905061112e57600160a260a1846040516110f39190612db5565b90815260405190819003602001812061110b91612cdb565b908152602001604051809103902060008282546111289190612de9565b90915550505b8060a18360405161113f9190612db5565b9081526020016040518091039020908051906020019061116092919061255a565b505b609f5460405160a290611176908490612db5565b90815260200160405180910390205414156111945761119481611d1c565b5050565b600060a4826040516111aa9190612db5565b9081526040519081900360200190205460ff1692915050565b6111e460408051606080820183528152600060208201819052909182015290565b60a0826040516111f49190612db5565b908152602001604051809103902060405180606001604052908160008201805461121d90612c87565b80601f016020809104026020016040519081016040528092919081815260200182805461124990612c87565b80156112965780601f1061126b57610100808354040283529160200191611296565b820191906000526020600020905b81548152906001019060200180831161127957829003601f168201915b505050918352505060018281015473ffffffffffffffffffffffffffffffffffffffff8116602084015260409092019174010000000000000000000000000000000000000000900460ff16908111156112f1576112f1612ab3565b600181111561130257611302612ab3565b90525092915050565b611313611cb5565b61131d600061227b565b565b609d5473ffffffffffffffffffffffffffffffffffffffff1633146113ac5760405162461bcd60e51b815260206004820152602560248201527f636f6e74726163742063616c6c206973206e6f74207374616b696e6720736c6160448201527f7368696e67000000000000000000000000000000000000000000000000000000606482015260840161054a565b60005b609e5481101561148857611468609e82815481106113cf576113cf612c58565b9060005260206000200180546113e490612c87565b80601f016020809104026020016040519081016040528092919081815260200182805461141090612c87565b801561145d5780601f106114325761010080835404028352916020019161145d565b820191906000526020600020905b81548152906001019060200180831161144057829003601f168201915b505050505083610b93565b1561147657611476816122f2565b8061148081612d7c565b9150506113af565b5060a0816040516114999190612db5565b90815260405190819003602001902060006114b48282612502565b5060010180547fffffffffffffffffffffff00000000000000000000000000000000000000000016905550565b600054610100900460ff16158080156115015750600054600160ff909116105b8061151b5750303b15801561151b575060005460ff166001145b61158d5760405162461bcd60e51b815260206004820152602e60248201527f496e697469616c697a61626c653a20636f6e747261637420697320616c72656160448201527f647920696e697469616c697a6564000000000000000000000000000000000000606482015260840161054a565b6000805460ff1916600117905580156115cd57600080547fffffffffffffffffffffffffffffffffffffffffffffffffffffffffffff00ff166101001790555b6115d56123fc565b6000609a819055609b819055609955801561164857600080547fffffffffffffffffffffffffffffffffffffffffffffffffffffffffffff00ff169055604051600181527f7f26b83ff96e1f2b6a682f133852f6798a09c465da95921460cefb3847402498906020015b60405180910390a15b50565b6060609e805480602002602001604051908101604052809291908181526020016000905b8282101561171b57838290600052602060002001805461168e90612c87565b80601f01602080910402602001604051908101604052809291908181526020018280546116ba90612c87565b80156117075780601f106116dc57610100808354040283529160200191611707565b820191906000526020600020905b8154815290600101906020018083116116ea57829003601f168201915b50505050508152602001906001019061166f565b50505050905090565b805160208183018101805160a08252928201919093012091528054819061174a90612c87565b80601f016020809104026020016040519081016040528092919081815260200182805461177690612c87565b80156117c35780601f10611798576101008083540402835291602001916117c3565b820191906000526020600020905b8154815290600101906020018083116117a657829003601f168201915b5050506001909301549192505073ffffffffffffffffffffffffffffffffffffffff81169060ff740100000000000000000000000000000000000000009091041683565b60008060a08360405161181a9190612db5565b908152604051908190036020019020805461183490612c87565b9050111561184457506001919050565b506000919050565b611854611cb5565b73ffffffffffffffffffffffffffffffffffffffff81166118dd5760405162461bcd60e51b815260206004820152602660248201527f4f776e61626c653a206e6577206f776e657220697320746865207a65726f206160448201527f6464726573730000000000000000000000000000000000000000000000000000606482015260840161054a565b6116488161227b565b609f546000908190606090819015611a7a576001609a546119079190612de9565b6099546097609e81805461191a90612c87565b80601f016020809104026020016040519081016040528092919081815260200182805461194690612c87565b80156119935780601f1061196857610100808354040283529160200191611993565b820191906000526020600020905b81548152906001019060200180831161197657829003601f168201915b5050505050915080805480602002602001604051908101604052809291908181526020016000905b82821015611a675783829060005260206000200180546119da90612c87565b80601f0160208091040260200160405190810160405280929190818152602001828054611a0690612c87565b8015611a535780601f10611a2857610100808354040283529160200191611a53565b820191906000526020600020905b815481529060010190602001808311611a3657829003601f168201915b5050505050815260200190600101906119bb565b5050505090509350935093509350611bec565b609a546099546097609e818054611a9090612c87565b80601f0160208091040260200160405190810160405280929190818152602001828054611abc90612c87565b8015611b095780601f10611ade57610100808354040283529160200191611b09565b820191906000526020600020905b815481529060010190602001808311611aec57829003601f168201915b5050505050915080805480602002602001604051908101604052809291908181526020016000905b82821015611bdd578382906000526020600020018054611b5090612c87565b80601f0160208091040260200160405190810160405280929190818152602001828054611b7c90612c87565b8015611bc95780601f10611b9e57610100808354040283529160200191611bc9565b820191906000526020600020905b815481529060010190602001808311611bac57829003601f168201915b505050505081526020019060010190611b31565b50505050905093509350935093505b90919293565b611bfa611cb5565b609d80547fffffffffffffffffffffffff00000000000000000000000000000000000000001673ffffffffffffffffffffffffffffffffffffffff92909216919091179055565b60008060008351604114611c975760405162461bcd60e51b815260206004820152601860248201527f696e76616c6964207369676e6174757265206c656e6774680000000000000000604482015260640161054a565b50505060208101516040820151606090920151909260009190911a90565b60335473ffffffffffffffffffffffffffffffffffffffff16331461131d5760405162461bcd60e51b815260206004820181905260248201527f4f776e61626c653a2063616c6c6572206973206e6f7420746865206f776e6572604482015260640161054a565b609e5415611dc15760005b609e54811015611db45760a0609e8281548110611d4657611d46612c58565b90600052602060002001604051611d5d9190612cdb565b9081526040519081900360200190206000611d788282612502565b5060010180547fffffffffffffffffffffff00000000000000000000000000000000000000000016905580611dac81612d7c565b915050611d27565b50611dc1609e600061253c565b60005b609f548110156121d657609e609f8281548110611de357611de3612c58565b600091825260208083208454600181018655948452922091018054919092019190611e0d90612c87565b611e189291906125fc565b506040518060600160405280609f8381548110611e3757611e37612c58565b906000526020600020018054611e4c90612c87565b80601f0160208091040260200160405190810160405280929190818152602001828054611e7890612c87565b8015611ec55780601f10611e9a57610100808354040283529160200191611ec5565b820191906000526020600020905b815481529060010190602001808311611ea857829003601f168201915b50505050508152602001611f7d609f8481548110611ee557611ee5612c58565b906000526020600020018054611efa90612c87565b80601f0160208091040260200160405190810160405280929190818152602001828054611f2690612c87565b8015611f735780601f10611f4857610100808354040283529160200191611f73565b820191906000526020600020905b815481529060010190602001808311611f5657829003601f168201915b5050505050610ddf565b73ffffffffffffffffffffffffffffffffffffffff168152602001600081525060a0609f8381548110611fb257611fb2612c58565b90600052602060002001604051611fc99190612cdb565b90815260200160405180910390206000820151816000019080519060200190611ff392919061255a565b5060208201516001808301805473ffffffffffffffffffffffffffffffffffffffff9093167fffffffffffffffffffffffff000000000000000000000000000000000000000084168117825560408601519391927fffffffffffffffffffffff00000000000000000000000000000000000000000090921617907401000000000000000000000000000000000000000090849081111561209557612095612ab3565b021790555090505060a260a1609f83815481106120b4576120b4612c58565b906000526020600020016040516120cb9190612cdb565b9081526040519081900360200181206120e391612cdb565b90815260200160405180910390206000905560a1609f828154811061210a5761210a612c58565b906000526020600020016040516121219190612cdb565b9081526020016040518091039020600061213b9190612502565b60a3609f828154811061215057612150612c58565b906000526020600020016040516121679190612cdb565b908152604051908190036020019020805460ff19169055609f805460a491908390811061219657612196612c58565b906000526020600020016040516121ad9190612cdb565b908152604051908190036020019020805460ff19169055806121ce81612d7c565b915050611dc4565b506121e3609f600061253c565b80516121f690609790602084019061255a565b5061220081610ddf565b609880547fffffffffffffffffffffffff00000000000000000000000000000000000000001673ffffffffffffffffffffffffffffffffffffffff92909216919091179055609a546040517f61c7922e50ad7ea3d35879a4a819ae97eb09b665f2113451d7ada7cb2b689b669161163f918490609e90612e00565b6033805473ffffffffffffffffffffffffffffffffffffffff8381167fffffffffffffffffffffffff0000000000000000000000000000000000000000831681179093556040519116919082907f8be0079c531659141344cd1fd0a4f28419497f9722a3daafe3b4186f6b6457e090600090a35050565b609e5481106123435760405162461bcd60e51b815260206004820152601260248201527f696e646578206f7574206f6620626f756e640000000000000000000000000000604482015260640161054a565b805b609e5461235490600190612de9565b8110156123c957609e612368826001612dd1565b8154811061237857612378612c58565b90600052602060002001609e828154811061239557612395612c58565b906000526020600020019080546123ab90612c87565b6123b69291906125fc565b50806123c181612d7c565b915050612345565b50609e8054806123db576123db612f00565b6001900381819060005260206000200160006123f79190612502565b905550565b600054610100900460ff166124795760405162461bcd60e51b815260206004820152602b60248201527f496e697469616c697a61626c653a20636f6e7472616374206973206e6f74206960448201527f6e697469616c697a696e67000000000000000000000000000000000000000000606482015260840161054a565b61131d600054610100900460ff166124f95760405162461bcd60e51b815260206004820152602b60248201527f496e697469616c697a61626c653a20636f6e7472616374206973206e6f74206960448201527f6e697469616c697a696e67000000000000000000000000000000000000000000606482015260840161054a565b61131d3361227b565b50805461250e90612c87565b6000825580601f1061251e575050565b601f0160209004906000526020600020908101906116489190612677565b5080546000825590600052602060002090810190611648919061268c565b82805461256690612c87565b90600052602060002090601f01602090048101928261258857600085556125ce565b82601f106125a157805160ff19168380011785556125ce565b828001600101855582156125ce579182015b828111156125ce5782518255916020019190600101906125b3565b506125da929150612677565b5090565b50805460008255906000526020600020908101906116489190612677565b82805461260890612c87565b90600052602060002090601f01602090048101928261262a57600085556125ce565b82601f1061263b57805485556125ce565b828001600101855582156125ce57600052602060002091601f016020900482015b828111156125ce57825482559160010191906001019061265c565b5b808211156125da5760008155600101612678565b808211156125da5760006126a08282612502565b5060010161268c565b7f4e487b7100000000000000000000000000000000000000000000000000000000600052604160045260246000fd5b604051601f82017fffffffffffffffffffffffffffffffffffffffffffffffffffffffffffffffe016810167ffffffffffffffff8111828210171561271f5761271f6126a9565b604052919050565b600082601f83011261273857600080fd5b813567ffffffffffffffff811115612752576127526126a9565b61278360207fffffffffffffffffffffffffffffffffffffffffffffffffffffffffffffffe0601f840116016126d8565b81815284602083860101111561279857600080fd5b816020850160208301376000918101602001919091529392505050565b600080604083850312156127c857600080fd5b82359150602083013567ffffffffffffffff8111156127e657600080fd5b6127f285828601612727565b9150509250929050565b6000806040838503121561280f57600080fd5b8235915060208084013567ffffffffffffffff8082111561282f57600080fd5b818601915086601f83011261284357600080fd5b813581811115612855576128556126a9565b8060051b6128648582016126d8565b918252838101850191858101908a84111561287e57600080fd5b86860192505b838310156128ba5782358581111561289c5760008081fd5b6128aa8c89838a0101612727565b8352509186019190860190612884565b809750505050505050509250929050565b6000602082840312156128dd57600080fd5b813567ffffffffffffffff8111156128f457600080fd5b61290084828501612727565b949350505050565b6020808252825182820181905260009190848201906040850190845b8181101561295657835173ffffffffffffffffffffffffffffffffffffffff1683529284019291840191600101612924565b50909695505050505050565b6000806040838503121561297557600080fd5b823567ffffffffffffffff8082111561298d57600080fd5b61299986838701612727565b935060208501359150808211156129af57600080fd5b506127f285828601612727565b60005b838110156129d75781810151838201526020016129bf565b838111156129e6576000848401525b50505050565b60008151808452612a048160208601602086016129bc565b601f017fffffffffffffffffffffffffffffffffffffffffffffffffffffffffffffffe0169290920160200192915050565b600081518084526020808501808196508360051b8101915082860160005b85811015612a7e578284038952612a6c8483516129ec565b98850198935090840190600101612a54565b5091979650505050505050565b838152826020820152606060408201526000612aaa6060830184612a36565b95945050505050565b7f4e487b7100000000000000000000000000000000000000000000000000000000600052602160045260246000fd5b60028110612b19577f4e487b7100000000000000000000000000000000000000000000000000000000600052602160045260246000fd5b9052565b602081526000825160606020840152612b3960808401826129ec565b905073ffffffffffffffffffffffffffffffffffffffff60208501511660408401526040840151612b6d6060850182612ae2565b509392505050565b602081526000612b886020830184612a36565b9392505050565b606081526000612ba260608301866129ec565b905073ffffffffffffffffffffffffffffffffffffffff841660208301526129006040830184612ae2565b600060208284031215612bdf57600080fd5b813573ffffffffffffffffffffffffffffffffffffffff81168114612b8857600080fd5b600060208284031215612c1557600080fd5b5035919050565b848152836020820152608060408201526000612c3b60808301856129ec565b8281036060840152612c4d8185612a36565b979650505050505050565b7f4e487b7100000000000000000000000000000000000000000000000000000000600052603260045260246000fd5b600181811c90821680612c9b57607f821691505b60208210811415612cd5577f4e487b7100000000000000000000000000000000000000000000000000000000600052602260045260246000fd5b50919050565b6000808354612ce981612c87565b60018281168015612d015760018114612d1257612d41565b60ff19841687528287019450612d41565b8760005260208060002060005b85811015612d385781548a820152908401908201612d1f565b50505082870194505b50929695505050505050565b7f4e487b7100000000000000000000000000000000000000000000000000000000600052601160045260246000fd5b60007fffffffffffffffffffffffffffffffffffffffffffffffffffffffffffffffff821415612dae57612dae612d4d565b5060010190565b60008251612dc78184602087016129bc565b9190910192915050565b60008219821115612de457612de4612d4d565b500190565b600082821015612dfb57612dfb612d4d565b500390565b83815260006020606081840152612e1a60608401866129ec565b83810360408501528085548083528383019150838160051b8401016000888152858120815b84811015612eef577fffffffffffffffffffffffffffffffffffffffffffffffffffffffffffffffe0878503018652828254612e7a81612c87565b80875260018281168015612e955760018114612ea957612ed8565b60ff1984168d8a0152604089019450612ed8565b8688528c8820885b84811015612ed05781548f828d01015283820191508e81019050612eb1565b8a018e019550505b50988b019892965050509190910190600101612e3f565b50919b9a5050505050505050505050565b7f4e487b7100000000000000000000000000000000000000000000000000000000600052603160045260246000fdfea26469706673582212201acdb0030c84beec209392624faccaa49758e45671c617032a68e04598973fc264736f6c63430008090033",
  "linkReferences": {},
  "deployedLinkReferences": {}
}