{
  "_format": "hh-sol-artifact-1",
  "contractName": "StateCommitmentChain",
  "sourceName": "contracts/L1/rollup/StateCommitmentChain.sol",
  "abi": [
    {
      "inputs": [
        {
          "internalType": "address",
          "name": "_libAddressManager",
          "type": "address"
        },
        {
          "internalType": "uint256",
          "name": "_fraudProofWindow",
          "type": "uint256"
        },
        {
          "internalType": "uint256",
          "name": "_sequencerPublishWindow",
          "type": "uint256"
        }
      ],
      "stateMutability": "nonpayable",
      "type": "constructor"
    },
    {
      "anonymous": false,
      "inputs": [
        {
          "indexed": true,
          "internalType": "uint256",
          "name": "_batchIndex",
          "type": "uint256"
        },
        {
          "indexed": false,
          "internalType": "bytes32",
          "name": "_batchRoot",
          "type": "bytes32"
        },
        {
          "indexed": false,
          "internalType": "uint256",
          "name": "_batchSize",
          "type": "uint256"
        },
        {
          "indexed": false,
          "internalType": "uint256",
          "name": "_prevTotalElements",
          "type": "uint256"
        },
        {
          "indexed": false,
          "internalType": "bytes",
          "name": "signature",
          "type": "bytes"
        },
        {
          "indexed": false,
          "internalType": "bytes",
          "name": "_extraData",
          "type": "bytes"
        }
      ],
      "name": "StateBatchAppended",
      "type": "event"
    },
    {
      "anonymous": false,
      "inputs": [
        {
          "indexed": true,
          "internalType": "uint256",
          "name": "_batchIndex",
          "type": "uint256"
        },
        {
          "indexed": false,
          "internalType": "bytes32",
          "name": "_batchRoot",
          "type": "bytes32"
        }
      ],
      "name": "StateBatchDeleted",
      "type": "event"
    },
    {
      "inputs": [],
      "name": "FRAUD_PROOF_WINDOW",
      "outputs": [
        {
          "internalType": "uint256",
          "name": "",
          "type": "uint256"
        }
      ],
      "stateMutability": "view",
      "type": "function"
    },
    {
      "inputs": [],
      "name": "SEQUENCER_PUBLISH_WINDOW",
      "outputs": [
        {
          "internalType": "uint256",
          "name": "",
          "type": "uint256"
        }
      ],
      "stateMutability": "view",
      "type": "function"
    },
    {
      "inputs": [
        {
          "internalType": "bytes32[]",
          "name": "_batch",
          "type": "bytes32[]"
        },
        {
          "internalType": "uint256",
          "name": "_shouldStartAtElement",
          "type": "uint256"
        },
        {
          "internalType": "bytes",
          "name": "_signature",
          "type": "bytes"
        }
      ],
      "name": "appendStateBatch",
      "outputs": [],
      "stateMutability": "nonpayable",
      "type": "function"
    },
    {
      "inputs": [],
      "name": "batches",
      "outputs": [
        {
          "internalType": "contract IChainStorageContainer",
          "name": "",
          "type": "address"
        }
      ],
      "stateMutability": "view",
      "type": "function"
    },
    {
      "inputs": [
        {
          "components": [
            {
              "internalType": "uint256",
              "name": "batchIndex",
              "type": "uint256"
            },
            {
              "internalType": "bytes32",
              "name": "batchRoot",
              "type": "bytes32"
            },
            {
              "internalType": "uint256",
              "name": "batchSize",
              "type": "uint256"
            },
            {
              "internalType": "uint256",
              "name": "prevTotalElements",
              "type": "uint256"
            },
            {
              "internalType": "bytes",
              "name": "signature",
              "type": "bytes"
            },
            {
              "internalType": "bytes",
              "name": "extraData",
              "type": "bytes"
            }
          ],
          "internalType": "struct Lib_BVMCodec.ChainBatchHeader",
          "name": "_batchHeader",
          "type": "tuple"
        }
      ],
      "name": "deleteStateBatch",
      "outputs": [],
      "stateMutability": "nonpayable",
      "type": "function"
    },
    {
      "inputs": [],
      "name": "getLastSequencerTimestamp",
      "outputs": [
        {
          "internalType": "uint256",
          "name": "_lastSequencerTimestamp",
          "type": "uint256"
        }
      ],
      "stateMutability": "view",
      "type": "function"
    },
    {
      "inputs": [],
      "name": "getTotalBatches",
      "outputs": [
        {
          "internalType": "uint256",
          "name": "_totalBatches",
          "type": "uint256"
        }
      ],
      "stateMutability": "view",
      "type": "function"
    },
    {
      "inputs": [],
      "name": "getTotalElements",
      "outputs": [
        {
          "internalType": "uint256",
          "name": "_totalElements",
          "type": "uint256"
        }
      ],
      "stateMutability": "view",
      "type": "function"
    },
    {
      "inputs": [
        {
          "components": [
            {
              "internalType": "uint256",
              "name": "batchIndex",
              "type": "uint256"
            },
            {
              "internalType": "bytes32",
              "name": "batchRoot",
              "type": "bytes32"
            },
            {
              "internalType": "uint256",
              "name": "batchSize",
              "type": "uint256"
            },
            {
              "internalType": "uint256",
              "name": "prevTotalElements",
              "type": "uint256"
            },
            {
              "internalType": "bytes",
              "name": "signature",
              "type": "bytes"
            },
            {
              "internalType": "bytes",
              "name": "extraData",
              "type": "bytes"
            }
          ],
          "internalType": "struct Lib_BVMCodec.ChainBatchHeader",
          "name": "_batchHeader",
          "type": "tuple"
        }
      ],
      "name": "insideFraudProofWindow",
      "outputs": [
        {
          "internalType": "bool",
          "name": "_inside",
          "type": "bool"
        }
      ],
      "stateMutability": "view",
      "type": "function"
    },
    {
      "inputs": [],
      "name": "libAddressManager",
      "outputs": [
        {
          "internalType": "contract Lib_AddressManager",
          "name": "",
          "type": "address"
        }
      ],
      "stateMutability": "view",
      "type": "function"
    },
    {
      "inputs": [],
      "name": "messenger",
      "outputs": [
        {
          "internalType": "address",
          "name": "",
          "type": "address"
        }
      ],
      "stateMutability": "view",
      "type": "function"
    },
    {
      "inputs": [
        {
          "internalType": "string",
          "name": "_name",
          "type": "string"
        }
      ],
      "name": "resolve",
      "outputs": [
        {
          "internalType": "address",
          "name": "",
          "type": "address"
        }
      ],
      "stateMutability": "view",
      "type": "function"
    },
    {
      "inputs": [
        {
          "internalType": "bytes32",
          "name": "_element",
          "type": "bytes32"
        },
        {
          "components": [
            {
              "internalType": "uint256",
              "name": "batchIndex",
              "type": "uint256"
            },
            {
              "internalType": "bytes32",
              "name": "batchRoot",
              "type": "bytes32"
            },
            {
              "internalType": "uint256",
              "name": "batchSize",
              "type": "uint256"
            },
            {
              "internalType": "uint256",
              "name": "prevTotalElements",
              "type": "uint256"
            },
            {
              "internalType": "bytes",
              "name": "signature",
              "type": "bytes"
            },
            {
              "internalType": "bytes",
              "name": "extraData",
              "type": "bytes"
            }
          ],
          "internalType": "struct Lib_BVMCodec.ChainBatchHeader",
          "name": "_batchHeader",
          "type": "tuple"
        },
        {
          "components": [
            {
              "internalType": "uint256",
              "name": "index",
              "type": "uint256"
            },
            {
              "internalType": "bytes32[]",
              "name": "siblings",
              "type": "bytes32[]"
            }
          ],
          "internalType": "struct Lib_BVMCodec.ChainInclusionProof",
          "name": "_proof",
          "type": "tuple"
        }
      ],
      "name": "verifyStateCommitment",
      "outputs": [
        {
          "internalType": "bool",
          "name": "",
          "type": "bool"
        }
      ],
      "stateMutability": "view",
      "type": "function"
    }
  ],
  "bytecode": "0x608060405234801561001057600080fd5b50604051620023463803806200234683398101604081905261003191610064565b600080546001600160a01b039094166001600160a01b0319948516179055600180549093169092556002556003556100a7565b60008060006060848603121561007957600080fd5b83516001600160a01b038116811461009057600080fd5b602085015160409095015190969495509392505050565b61228f80620000b76000396000f3fe608060405234801561001057600080fd5b50600436106100df5760003560e01c80637ad168a01161008c578063b768bb1711610066578063b768bb17146101d3578063c17b291b146101e6578063cfdf677e146101ef578063e561dddc146101f757600080fd5b80637ad168a01461019f57806381eb62ef146101a757806389a1d980146101b057600080fd5b8063461a4478116100bd578063461a4478146101635780635b4d90e2146101765780637aa63a861461018957600080fd5b80632169f79f146100e4578063299ca478146100f95780633cb747bf14610143575b600080fd5b6100f76100f2366004611c89565b6101ff565b005b6000546101199073ffffffffffffffffffffffffffffffffffffffff1681565b60405173ffffffffffffffffffffffffffffffffffffffff90911681526020015b60405180910390f35b6001546101199073ffffffffffffffffffffffffffffffffffffffff1681565b610119610171366004611cf6565b61060a565b6100f7610184366004611dde565b6106b7565b610191610873565b60405190815260200161013a565b61019161088c565b61019160035481565b6101c36101be366004611dde565b6108a5565b604051901515815260200161013a565b6101c36101e1366004611e13565b61094d565b61019160025481565b610119610a17565b610191610a3f565b610207610873565b82146102805760405162461bcd60e51b815260206004820152603d60248201527f41637475616c20626174636820737461727420696e64657820646f6573206e6f60448201527f74206d6174636820657870656374656420737461727420696e6465782e00000060648201526084015b60405180910390fd5b6102be6040518060400160405280600b81526020017f426f6e644d616e6167657200000000000000000000000000000000000000000081525061060a565b6040517f02ad4d2a00000000000000000000000000000000000000000000000000000000815233600482015273ffffffffffffffffffffffffffffffffffffffff91909116906302ad4d2a9060240160206040518083038186803b15801561032557600080fd5b505afa158015610339573d6000803e3d6000fd5b505050506040513d601f19601f8201168201806040525081019061035d9190611ed0565b6103cf5760405162461bcd60e51b815260206004820152602f60248201527f50726f706f73657220646f6573206e6f74206861766520656e6f75676820636f60448201527f6c6c61746572616c20706f7374656400000000000000000000000000000000006064820152608401610277565b60008351116104465760405162461bcd60e51b815260206004820152602360248201527f43616e6e6f74207375626d697420616e20656d7074792073746174652062617460448201527f63682e00000000000000000000000000000000000000000000000000000000006064820152608401610277565b6104846040518060400160405280601981526020017f43616e6f6e6963616c5472616e73616374696f6e436861696e0000000000000081525061060a565b73ffffffffffffffffffffffffffffffffffffffff16637aa63a866040518163ffffffff1660e01b815260040160206040518083038186803b1580156104c957600080fd5b505afa1580156104dd573d6000803e3d6000fd5b505050506040513d601f19601f820116820180604052508101906105019190611ef2565b835161050b610873565b6105159190611f3a565b11156105af5760405162461bcd60e51b815260206004820152604960248201527f4e756d626572206f6620737461746520726f6f74732063616e6e6f742065786360448201527f65656420746865206e756d626572206f662063616e6f6e6963616c207472616e60648201527f73616374696f6e732e0000000000000000000000000000000000000000000000608482015260a401610277565b6105ba838383610ac6565b610605838242336040516020016105f192919091825273ffffffffffffffffffffffffffffffffffffffff16602082015260400190565b604051602081830303815290604052610c04565b505050565b600080546040517fbf40fac100000000000000000000000000000000000000000000000000000000815273ffffffffffffffffffffffffffffffffffffffff9091169063bf40fac190610661908590600401611fbd565b60206040518083038186803b15801561067957600080fd5b505afa15801561068d573d6000803e3d6000fd5b505050506040513d601f19601f820116820180604052508101906106b19190611ff2565b92915050565b6106f56040518060400160405280601181526020017f42564d5f4672617564566572696669657200000000000000000000000000000081525061060a565b73ffffffffffffffffffffffffffffffffffffffff163373ffffffffffffffffffffffffffffffffffffffff16146107955760405162461bcd60e51b815260206004820152603b60248201527f537461746520626174636865732063616e206f6e6c792062652064656c65746560448201527f64206279207468652042564d5f467261756456657269666965722e00000000006064820152608401610277565b61079e81610eb4565b6107ea5760405162461bcd60e51b815260206004820152601560248201527f496e76616c6964206261746368206865616465722e00000000000000000000006044820152606401610277565b6107f3816108a5565b610867576040805162461bcd60e51b81526020600482015260248101919091527f537461746520626174636865732063616e206f6e6c792062652064656c65746560448201527f642077697468696e207468652066726175642070726f6f662077696e646f772e6064820152608401610277565b61087081610f76565b50565b60008061087e6111a7565b5064ffffffffff1692915050565b6000806108976111a7565b64ffffffffff169392505050565b6000808260a001518060200190518101906108c0919061200f565b509050806109365760405162461bcd60e51b815260206004820152602560248201527f4261746368206865616465722074696d657374616d702063616e6e6f7420626560448201527f207a65726f0000000000000000000000000000000000000000000000000000006064820152608401610277565b42600254826109459190611f3a565b119392505050565b600061095883610eb4565b6109a45760405162461bcd60e51b815260206004820152601560248201527f496e76616c6964206261746368206865616465722e00000000000000000000006044820152606401610277565b6109c183602001518584600001518560200151876040015161124b565b610a0d5760405162461bcd60e51b815260206004820152601860248201527f496e76616c696420696e636c7573696f6e2070726f6f662e00000000000000006044820152606401610277565b5060019392505050565b6000610a3a6040518060600160405280602181526020016122396021913961060a565b905090565b6000610a49610a17565b73ffffffffffffffffffffffffffffffffffffffff16631f7b6d326040518163ffffffff1660e01b815260040160206040518083038186803b158015610a8e57600080fd5b505afa158015610aa2573d6000803e3d6000fd5b505050506040513d601f19601f82011682018060405250810190610a3a9190611ef2565b610b046040518060400160405280600f81526020017f54737347726f75704d616e61676572000000000000000000000000000000000081525061060a565b73ffffffffffffffffffffffffffffffffffffffff16633231a7f08484604051602001610b3292919061203f565b60405160208183030381529060405280519060200120836040518363ffffffff1660e01b8152600401610b66929190612087565b602060405180830381600087803b158015610b8057600080fd5b505af1158015610b94573d6000803e3d6000fd5b505050506040513d601f19601f82011682018060405250810190610bb89190611ed0565b6106055760405162461bcd60e51b815260206004820152601760248201527f766572696679207369676e6174757265206661696c65640000000000000000006044820152606401610277565b6000610c446040518060400160405280600c81526020017f42564d5f50726f706f736572000000000000000000000000000000000000000081525061060a565b9050600080610c516111a7565b90925090503373ffffffffffffffffffffffffffffffffffffffff84161415610c7b575042610d2a565b426003548264ffffffffff16610c919190611f3a565b10610d2a5760405162461bcd60e51b815260206004820152604360248201527f43616e6e6f74207075626c69736820737461746520726f6f747320776974686960448201527f6e207468652073657175656e636572207075626c69636174696f6e2077696e6460648201527f6f772e0000000000000000000000000000000000000000000000000000000000608482015260a401610277565b60006040518060c00160405280610d3f610a3f565b8152602001610d4d896114b9565b8152602001885181526020018464ffffffffff16815260200187815260200186815250905080600001517f9cf3ad24eae3fd6d461e2f566b35b95b6d671871d9fcb45f8ac8030e4a8d21b382602001518360400151846060015185608001518660a00151604051610dc29594939291906120a0565b60405180910390a2610dd2610a17565b73ffffffffffffffffffffffffffffffffffffffff16632015276c610df68361199d565b610e1b84604001518560600151610e0d9190611f3a565b602887811b91909117901b90565b6040517fffffffff0000000000000000000000000000000000000000000000000000000060e085901b16815260048101929092527fffffffffffffffffffffffffffffffffffffffffffffffffffffff0000000000166024820152604401600060405180830381600087803b158015610e9357600080fd5b505af1158015610ea7573d6000803e3d6000fd5b5050505050505050505050565b6000610ebe610a17565b82516040517f9507d39a00000000000000000000000000000000000000000000000000000000815273ffffffffffffffffffffffffffffffffffffffff9290921691639507d39a91610f169160040190815260200190565b60206040518083038186803b158015610f2e57600080fd5b505afa158015610f42573d6000803e3d6000fd5b505050506040513d601f19601f82011682018060405250810190610f669190611ef2565b610f6f8361199d565b1492915050565b610f7e610a17565b73ffffffffffffffffffffffffffffffffffffffff16631f7b6d326040518163ffffffff1660e01b815260040160206040518083038186803b158015610fc357600080fd5b505afa158015610fd7573d6000803e3d6000fd5b505050506040513d601f19601f82011682018060405250810190610ffb9190611ef2565b81511061104a5760405162461bcd60e51b815260206004820152601460248201527f496e76616c696420626174636820696e6465782e0000000000000000000000006044820152606401610277565b61105381610eb4565b61109f5760405162461bcd60e51b815260206004820152601560248201527f496e76616c6964206261746368206865616465722e00000000000000000000006044820152606401610277565b6110a7610a17565b8151606083015173ffffffffffffffffffffffffffffffffffffffff929092169163167fd681919060281b6040517fffffffff0000000000000000000000000000000000000000000000000000000060e085901b16815260048101929092527fffffffffffffffffffffffffffffffffffffffffffffffffffffff0000000000166024820152604401600060405180830381600087803b15801561114a57600080fd5b505af115801561115e573d6000803e3d6000fd5b5050505080600001517f8747b69ce8fdb31c3b9b0a67bd8049ad8c1a69ea417b69b12174068abd9cbd64826020015160405161119c91815260200190565b60405180910390a250565b60008060006111b4610a17565b73ffffffffffffffffffffffffffffffffffffffff1663ccf8f9696040518163ffffffff1660e01b815260040160206040518083038186803b1580156111f957600080fd5b505afa15801561120d573d6000803e3d6000fd5b505050506040513d601f19601f8201168201806040525081019061123191906120e3565b64ffffffffff602882901c169460509190911c9350915050565b60008082116112c25760405162461bcd60e51b815260206004820152603760248201527f4c69625f4d65726b6c65547265653a20546f74616c206c6561766573206d757360448201527f742062652067726561746572207468616e207a65726f2e0000000000000000006064820152608401610277565b8184106113365760405162461bcd60e51b8152602060048201526024808201527f4c69625f4d65726b6c65547265653a20496e646578206f7574206f6620626f7560448201527f6e64732e000000000000000000000000000000000000000000000000000000006064820152608401610277565b61133f826119e6565b8351146113da5760405162461bcd60e51b815260206004820152604d60248201527f4c69625f4d65726b6c65547265653a20546f74616c207369626c696e6773206460448201527f6f6573206e6f7420636f72726563746c7920636f72726573706f6e6420746f2060648201527f746f74616c206c65617665732e00000000000000000000000000000000000000608482015260a401610277565b8460005b84518110156114ac5785600116600114156114455784818151811061140557611405612125565b602002602001015182604051602001611428929190918252602082015260400190565b604051602081830303815290604052805190602001209150611493565b8185828151811061145857611458612125565b602002602001015160405160200161147a929190918252602082015260400190565b6040516020818303038152906040528051906020012091505b60019590951c94806114a481612154565b9150506113de565b5090951495945050505050565b6000808251116115315760405162461bcd60e51b815260206004820152603460248201527f4c69625f4d65726b6c65547265653a204d7573742070726f766964652061742060448201527f6c65617374206f6e65206c65616620686173682e0000000000000000000000006064820152608401610277565b81516001141561155d578160008151811061154e5761154e612125565b60200260200101519050919050565b60408051610200810182527f290decd9548b62a8d60345a988386fc84ba6bc95484008f6362f93160ef3e56381527f633dc4d7da7256660a892f8f1604a44b5432649cc8ec5cb3ced4c4e6ac94dd1d60208201527f890740a8eb06ce9be422cb8da5cdafc2b58c0a5e24036c578de2a433c828ff7d818301527f3b8ec09e026fdc305365dfc94e189a81b38c7597b3d941c279f042e8206e0bd86060808301919091527fecd50eee38e386bd62be9bedb990706951b65fe053bd9d8a521af753d139e2da60808301527fdefff6d330bb5403f63b14f33b578274160de3a50df4efecf0e0db73bcdd3da560a08301527f617bdd11f7c0a11f49db22f629387a12da7596f9d1704d7465177c63d88ec7d760c08301527f292c23a9aa1d8bea7e2435e555a4a60e379a5a35f3f452bae60121073fb6eead60e08301527fe1cea92ed99acdcb045a6726b2f87107e8a61620a232cf4d7d5b5766b3952e106101008301527f7ad66c0a68c72cb89e4fb4303841966e4062a76ab97451e3b9fb526a5ceb7f826101208301527fe026cc5a4aed3c22a58cbd3d2ac754c9352c5436f638042dca99034e836365166101408301527f3d04cffd8b46a874edf5cfae63077de85f849a660426697b06a829c70dd1409c6101608301527fad676aa337a485e4728a0b240d92b3ef7b3c372d06d189322bfd5f61f1e7203e6101808301527fa2fca4a49658f9fab7aa63289c91b7c7b6c832a6d0e69334ff5b0a3483d09dab6101a08301527f4ebfd9cd7bca2505f7bef59cc1c12ecc708fff26ae4af19abe852afe9e20c8626101c08301527f2def10d13dd169f550f578bda343d9717a138562e0093b380a1120789d53cf106101e083015282518381529081018352909160009190602082018180368337505085519192506000918291508180805b60018411156119735761180e6002856121bc565b915061181b6002856121d0565b600114905060005b828110156118c7578a6118378260026121e4565b8151811061184757611847612125565b602002602001015196508a81600261185f91906121e4565b61186a906001611f3a565b8151811061187a5761187a612125565b6020026020010151955086602089015285604089015287805190602001208b82815181106118aa576118aa612125565b6020908102919091010152806118bf81612154565b915050611823565b50801561194357896118da600186612221565b815181106118ea576118ea612125565b6020026020010151955087836010811061190657611906612125565b602002015160001b945085602088015284604088015286805190602001208a838151811061193657611936612125565b6020026020010181815250505b8061194f576000611952565b60015b61195f9060ff1683611f3a565b93508261196b81612154565b9350506117fa565b8960008151811061198657611986612125565b602002602001015198505050505050505050919050565b6020808201516040808401516060850151608086015160a087015193516000966119c9969591016120a0565b604051602081830303815290604052805190602001209050919050565b6000808211611a5d5760405162461bcd60e51b815260206004820152603060248201527f4c69625f4d65726b6c65547265653a2043616e6e6f7420636f6d70757465206360448201527f65696c286c6f675f3229206f6620302e000000000000000000000000000000006064820152608401610277565b8160011415611a6e57506000919050565b81600060805b60018110611aac5780611a8a600180831b612221565b901b831615611aa457611a9d8183611f3a565b92811c9291505b60011c611a74565b506001811b8414611ac557611ac2600182611f3a565b90505b9392505050565b7f4e487b7100000000000000000000000000000000000000000000000000000000600052604160045260246000fd5b60405160c0810167ffffffffffffffff81118282101715611b1e57611b1e611acc565b60405290565b604051601f82017fffffffffffffffffffffffffffffffffffffffffffffffffffffffffffffffe016810167ffffffffffffffff81118282101715611b6b57611b6b611acc565b604052919050565b600082601f830112611b8457600080fd5b8135602067ffffffffffffffff821115611ba057611ba0611acc565b8160051b611baf828201611b24565b9283528481018201928281019087851115611bc957600080fd5b83870192505b84831015611be857823582529183019190830190611bcf565b979650505050505050565b600067ffffffffffffffff831115611c0d57611c0d611acc565b611c3e60207fffffffffffffffffffffffffffffffffffffffffffffffffffffffffffffffe0601f86011601611b24565b9050828152838383011115611c5257600080fd5b828260208301376000602084830101529392505050565b600082601f830112611c7a57600080fd5b611ac583833560208501611bf3565b600080600060608486031215611c9e57600080fd5b833567ffffffffffffffff80821115611cb657600080fd5b611cc287838801611b73565b9450602086013593506040860135915080821115611cdf57600080fd5b50611cec86828701611c69565b9150509250925092565b600060208284031215611d0857600080fd5b813567ffffffffffffffff811115611d1f57600080fd5b8201601f81018413611d3057600080fd5b611d3f84823560208401611bf3565b949350505050565b600060c08284031215611d5957600080fd5b611d61611afb565b905081358152602082013560208201526040820135604082015260608201356060820152608082013567ffffffffffffffff80821115611da057600080fd5b611dac85838601611c69565b608084015260a0840135915080821115611dc557600080fd5b50611dd284828501611c69565b60a08301525092915050565b600060208284031215611df057600080fd5b813567ffffffffffffffff811115611e0757600080fd5b611d3f84828501611d47565b600080600060608486031215611e2857600080fd5b83359250602084013567ffffffffffffffff80821115611e4757600080fd5b611e5387838801611d47565b93506040860135915080821115611e6957600080fd5b9085019060408288031215611e7d57600080fd5b604051604081018181108382111715611e9857611e98611acc565b60405282358152602083013582811115611eb157600080fd5b611ebd89828601611b73565b6020830152508093505050509250925092565b600060208284031215611ee257600080fd5b81518015158114611ac557600080fd5b600060208284031215611f0457600080fd5b5051919050565b7f4e487b7100000000000000000000000000000000000000000000000000000000600052601160045260246000fd5b60008219821115611f4d57611f4d611f0b565b500190565b6000815180845260005b81811015611f7857602081850181015186830182015201611f5c565b81811115611f8a576000602083870101525b50601f017fffffffffffffffffffffffffffffffffffffffffffffffffffffffffffffffe0169290920160200192915050565b602081526000611ac56020830184611f52565b73ffffffffffffffffffffffffffffffffffffffff8116811461087057600080fd5b60006020828403121561200457600080fd5b8151611ac581611fd0565b6000806040838503121561202257600080fd5b82519150602083015161203481611fd0565b809150509250929050565b604080825283519082018190526000906020906060840190828701845b828110156120785781518452928401929084019060010161205c565b50505092019290925292915050565b828152604060208201526000611d3f6040830184611f52565b85815284602082015283604082015260a0606082015260006120c560a0830185611f52565b82810360808401526120d78185611f52565b98975050505050505050565b6000602082840312156120f557600080fd5b81517fffffffffffffffffffffffffffffffffffffffffffffffffffffff000000000081168114611ac557600080fd5b7f4e487b7100000000000000000000000000000000000000000000000000000000600052603260045260246000fd5b60007fffffffffffffffffffffffffffffffffffffffffffffffffffffffffffffffff82141561218657612186611f0b565b5060010190565b7f4e487b7100000000000000000000000000000000000000000000000000000000600052601260045260246000fd5b6000826121cb576121cb61218d565b500490565b6000826121df576121df61218d565b500690565b6000817fffffffffffffffffffffffffffffffffffffffffffffffffffffffffffffffff048311821515161561221c5761221c611f0b565b500290565b60008282101561223357612233611f0b565b50039056fe436861696e53746f72616765436f6e7461696e65722d5343432d62617463686573a2646970667358221220c2461320d2f10afb8937203e50ac124bcf47ed7af4ffa9c7fb443c6b8639b5bf64736f6c63430008090033",
  "linkReferences": {},
  "deployedLinkReferences": {}
}